:020000040800F2
:10000000189A0020C10100089B0D00082D0C000863
:10001000E50C0008DD030008710F00080000000077
:100020000000000000000000000000000D020008B9
:10003000DF03000800000000A5020008B502000868
:10004000FB010008FB010008FB010008FB010008A0
:10005000FB010008FB010008FB010008FB01000890
:10006000FB010008FB010008FB010008FB01000880
:10007000FB010008FB010008FB010008FB01000870
:10008000FB010008FB010008FB010008FB01000860
:10009000FB010008FB010008FB010008FB01000850
:1000A000FB010008FB010008FB010008FB01000840
:1000B000FB010008FB010008FB010008FB01000830
:1000C000FB010008FB010008FB010008FB01000820
:1000D000FB010008FB010008FB010008FB01000810
:1000E000FB010008FB010008FB010008FB01000800
:1000F000FB010008FB010008FB010008FB010008F0
:10010000FB010008FB010008FB010008FB010008DF
:10011000FB010008FB010008FB010008FB010008CF
:10012000FB010008FB010008FB010008FB010008BF
:10013000FB010008FB010008FB010008FB010008AF
:10014000FB010008FB010008FB010008FB0100089F
:10015000FB010008FB010008FB010008FB0100088F
:10016000FB010008FB010008FB010008FB0100087F
:10017000FB010008FB010008FB0100080000000073
:10018000FB010008FB010008FB010008FB0100085F
:10019000FB010008FB010008FB010008FB0100084F
:1001A000FB010008FB010008FB010008DFF80CD090
:1001B00000F002F900480047F50F0008189A0020E7
:1001C000DFF83800016841F470010160BFF34F8F20
:1001D000DFF82C00016821F040410160BFF36F8F10
:1001E0000848804708480047FEE7FEE7FEE7FEE7CD
:1001F000FEE7FEE7FEE7FEE7FEE7FEE788ED00E04C
:1002000034EF00E09D0E0008AD0100081EF0040F61
:100210000CBFEFF30880EFF30980816911F8021C2D
:1002200091BB01B590E80F10E047BDE800508CE8A5
:100230000300244B93E80600914208BF704741B980
:100240001EF0100F10D12049086820F0010008604E
:100250000AE02CE9F00F1EF0100F08BF2CED108AF9
:10026000C1F838C081F822E01A6092F82210906B31
:1002700061F0FF0E1EF0100F08BFB0EC108AB0E85E
:10028000F00F80F309887047104A13689942FAD832
:1002900001B552F821C00FC8E047BDE80050CCF8C6
:1002A0000000704701B501F0ABF9BDE80140EFF384
:1002B000098CBEE701B501F03DFCBDE80140EFF35C
:1002C000098CB6E72000002034EF00E0D4250008B8
:1002D0002DE9F05F0546002092469B46884606467B
:1002E000814640241BE0284641464746224600F00E
:1002F00053F853465A46C01A914110D31146184636
:10030000224600F03AF82D1A67EB01084F462246C4
:100310000120002100F031F817EB00094E41201EAA
:10032000A4F10104DFDC484631462A464346BDE8D5
:10033000F09F40EA01039B0703D009E008C9121FA0
:1003400008C0042AFAD203E011F8013B00F8013B8F
:10035000521EF9D27047D2B201E000F8012B491EBB
:10036000FBD270470022F6E710B513460A46044652
:100370001946FFF7F0FF204610BD202A04DB203A83
:1003800000FA02F1002070479140C2F1200320FAE8
:1003900003F3194390407047202A04DB203A21FAE6
:1003A00002F00021704721FA02F3D040C2F120028E
:1003B0009140084319467047064C074D06E0E06837
:1003C00040F0010394E8070098471034AC42F6D39C
:1003D000FFF7F0FE5426000874260008FEE7704779
:1003E0007047704770477047704770477047704755
:1003F0007047704770477047704770477047704745
:100400007047704770477047704770477047704734
:100410007047704770477047704770477047704724
:100420007047704770477047704770477047704714
:100430007047704770477047704770477047704704
:1004400070477047704770472DE9FC4F5E4A0A2499
:100450004FF0010B4FF000084FF0000E90425B4A46
:1004600008BF092402444FEAB223092B38BF4FEAE0
:10047000B22400220094BEF1200F08BFBDE8FC8F1B
:100480000F680BFA02F6374200F090804F68122F87
:1004900000F292800BFA07F414F0061F00F08C8033
:1004A00003234FEA420A03FA0EF48368CD686FEA29
:1004B000040CA34305FA0EF52B4383603B09456802
:1004C0009340B5432B434360C4688D6804EA0C0431
:1004D00005FA0AF52C43C46047F01004122C12D11F
:1004E00008F01C040F2303FA04F56FF0030303EA7A
:1004F00052070744D7F820900B6929EA0505A34065
:100500002B433B624F68036807F0030404FA0AF4C4
:1005100003EA0C0323430360FB0047D500232E4C62
:100520002B4F22F0030501932368BC463D4443F45E
:100530008043236023680F2403F48043019308F071
:100540000C03019F9C40254FB946EF5927EA04044C
:10055000009F07FA03F3234345F80930DCF8003025
:100560004D6843EA0604EF0358BF23EA0604CCF8BB
:100570000040AF03DCF8043043EA060458BF23EA26
:100580000604CCF80440EF02DCF80830114F43EACF
:10059000060458BF23EA0604CCF80840AD023B68C5
:1005A00043EA060458BF23EA06043C6008F1040845
:1005B0000EF1020E01325EE70323F24603FA0EF457
:1005C0006FEA040C80E700BF002402400000FEBF79
:1005D000003C01400C3C01404438024008FCFFFF55
:1005E000002A08BF090481617047000001480068C3
:1005F000704700BF1096002080B50B48016841F499
:1006000000710160016841F480610160016841F49A
:1006100080710160032000F05DF8002000F006F812
:1006200000F022F8002080BD003C024070B50D4E65
:1006300004464FF47A713078B1FBF0F090490968C4
:10064000B1FBF0F000F0E2FA01250F2C08D838B920
:100650004FF0FF3021460022002500F01FF87460A3
:10066000284670BD0000002082B00020394901906A
:100670004A6842F480424A604A6802F48042019229
:10068000019A0090086840F080500860086800F007
:1006900080500090009802B0704700BF70B5134BB7
:1006A0004FF0FF351B68C3F30223DC1E83F0070302
:1006B00038BF0024042B28BF042305FA04F605FAEA
:1006C00003F3B2439943A1401143BDE8704000F0E9
:1006D00051BC00BF05494FF6FF030A681A4060F39A
:1006E0000A22034810430860704700BF0CED00E089
:1006F0000000FA057CB50020174E184D01901548F2
:10070000016841F080510160006800F08050019064
:10071000019801203060FFF769FF04462868C00394
:1007200006D4FFF763FF001BB0F57A7FF6D90DE022
:1007300001207060FFF75AFF04462868800307D441
:10074000FFF754FF001BB0F57A7FF6D903207CBD7C
:1007500000207CBD4038024040000E420470004042
:100760002DE9F041002860D0434B04468846D3F879
:10077000000400F00F00884207D283F80084D3F809
:10078000000400F00F0040454FD12068810711D5CB
:10079000410703D5996841F4E0519960010703D5F9
:1007A000996841F460419960A1689A6822F0F0026A
:1007B00011439960C00731D1D3F8000400F00F0055
:1007C000404507D983F80084D3F8000400F00F00F7
:1007D00040452AD12068410705D5E1689A6822F48E
:1007E000E05211439960000706D52069996821F409
:1007F000604141EAC00098601C4600F045F8A168DD
:100800001E4AC1F30311515CC8401D4908601D48D0
:100810000068FFF70BFF0020BDE8F0816068811ED3
:10082000022905D21968890107D40120BDE8F081A9
:1008300001281DD119688903F7D599681D4621F053
:10084000030108439860FFF7D1FE064641F288375E
:100850006068A9682B4601F00C01B1EB800FABD0AA
:10086000FFF7C4FE801BB842F2D90320BDE8F08137
:1008700019688907D9D5E0E7003802407C250008CF
:10088000080000200400002010B5134C606800F040
:100890000C00082804D0042814BF1048104810BDCC
:1008A000226820680023400202F03F020C485CBF2F
:1008B00042F20040C0F2F4002168C1F38811A0FBAD
:1008C0000101FFF705FD21680222C1F3014102EB9E
:1008D0004101B0FBF1F010BD043802400024F400E7
:1008E00040787D012DE9FC4100285CD00446007869
:1008F000C34EC0070BD0B06800F00C00042840F0D5
:100900008F803068800302D5606800284BD0207843
:1009100080071AD5B06810F00C0F09D0B06800F04D
:100920000C00082840F0A2807068400200F19E8010
:100930003068800702D5E068012834D12069316829
:1009400021F0F80141EAC0003060207800072DD482
:10095000207840073ED4A76917B3B06800F00C00B8
:10096000082840F0C380012F1DD0E169B06800F471
:1009700080028A4217D1216A00F03F028A4212D1D6
:1009800047F6C071626A014091420CD1A16A00F43D
:1009900040328A4207D1E16A00F07060884202D199
:1009A0000020BDE8FC810120BDE8FC81616995481B
:1009B000002900F089800121C0F8801EFFF716FE93
:1009C0000546706F8007C3D4FFF710FE401B022856
:1009D000F7D988E0306C4FF00008C0000CD4CDF897
:1009E00004804FF00108306C40F080503064306C6F
:1009F00000F0805001900198834F3868C00548D4BA
:100A0000386840F480703860FFF7F0FD05463868BC
:100A1000C0053ED4FFF7EAFD401B0228F7D962E08B
:100A2000B06800F00C00082803D1706840023FF560
:100A300068AF6768B7F5803F07D03068B7F5A02F7B
:100A400040F0A58040F480203060306840F4803071
:100A50003060FFF7CBFD0546306880033FF557AFA8
:100A6000FFF7C4FD401B6428F6D93CE0E06800288D
:100A70005BD0644801210160FFF7B8FD054630688E
:100A800080073FF55BAFFFF7B1FD401B0228F6D9A9
:100A900029E0A768012F05D0306F052F56D140F00F
:100AA00004003067306F40F001003067FFF79EFDB3
:100AB000054641F28837306F80075FD4FFF796FD17
:100AC000401BB842F7D90EE00021C0F8801EFFF7A6
:100AD0008DFD0546706F80077FF53AAFFFF786FD05
:100AE000401B0228F6D90320BDE8FC8145490020BF
:100AF00088460866FFF77AFD0546022F0AD1474669
:100B0000306880015CD5FFF771FD411B032002298D
:100B1000F6D946E7306880017FF542AFFFF766FD02
:100B2000411B03200229F5D93BE73648002101602B
:100B3000FFF75CFD0546306880077FF506AFFFF7DD
:100B400055FD411B03200229F5D92AE720F00100B9
:100B50003067306F20F004003067FFF747FD05462F
:100B6000002FA6D141F28837306F800706D5FFF7F6
:100B70003DFD411B0320B942F6D912E7B8F1000F41
:100B80003FF4E9AE306C20F080503064E3E620F4AE
:100B900080303060306820F480203060FFF726FD20
:100BA0000546002F7FF458AF06E0FFF71FFD411BFD
:100BB000032064293FF6F5AE30688003F5D4A6E63D
:100BC0001C341FCC0843D90340EA82104FF6FF7251
:100BD000914340EA0460A1F5803108437060012030
:100BE0003866FFF703FD0446306880013FF5D8AE54
:100BF000FFF7FCFC011B03200229F5D9D1E600BF59
:100C0000003802400000474200700040411E0020B2
:100C1000B0EB116F1CBF012070477B4AF02351607D
:100C200078490B700721906011607047FEE7000063
:100C30002DE9F04387B000272848294C00224FF4C3
:100C4000805906970197016841F00401016001682D
:100C500001F00401019101990197016841F08001BF
:100C60000160016801F0800101910199019701681B
:100C700041F008010160016801F00801019101994A
:100C80000197016841F0400101604FF48051006814
:100C900000F04000019001982046FFF7A1FC04F508
:100CA0004065802100224FF080082846FFF798FC1D
:100CB0000126059720460496CDE902960DF1080914
:100CC0004946FFF7C1FB28464946CDE90467CDE90F
:100CD0000286FFF7B9FB07B0BDE8F0833038024069
:100CE000000C0240FEE710B500F1280151E8002F8A
:100CF00012B9BFF32F8F04E0531E41E8003404B152
:100D0000F4E772B12C300121006850B1821CD2E8A6
:100D10004F3FC2E8441F04B1F9E71A0602D0083079
:100D2000F2E7002010BD70B5024652F8305F4DB1B9
:100D3000CC7800235DB12E46ED78A5420DD27568C2
:100D40003346F7E70023C1E90133C1620DE0002417
:100D5000C1E9014300F12C0403E0C1E9016306F19C
:100D600008042160002B18BF1A1D1160283050E8BC
:100D7000001F4A1C40E8002303B1F8E770BDD1E929
:100D8000012312B193608B6800E0C362191D002B30
:100D900008BF00F130010A60704770471A480068C8
:100DA000704700BF19480178012905D105494FF066
:100DB00080620A60002101701348016841F001015E
:100DC0000160704704ED00E04FF0FF307047000015
:100DD00040B10B490968B1FBF0F0411E0020B0EBB7
:100DE000116F02D04FF0FF307047064AFF23137097
:100DF000054A0623136051600449087090607047EB
:100E00000800002023ED00E010E000E0B00000202A
:100E1000B0B592B000241F480225CDE90A44CDE9BF
:100E200008440194016841F080510160006800F0BD
:100E300080500190019801941748016841F44041A5
:100E40000160006800F44040019001981095042072
:100E500011904FF4B4700F9019200E904FF4800051
:100E6000CDE90C504FF4803007900120069006A881
:100E7000FFF738FDFFF73EFC4FF4A0500521CDE908
:100E800004000F20CDE90254019001A8FFF768FC8F
:100E900012B0B0BD40380240007000400548D0F8A4
:100EA000801041F47001C0F880104FF000610160C3
:100EB000704700BF08ED00E010B5930712D400F1B1
:100EC0002803D0071ED153E8000F084203D1BFF317
:100ED0002F8F002005E020EA010243E8002404B13E
:100EE000F1E710BD806A00EA01038B42014618BF9A
:100EF000002112F0010208BF014653EA020018BFA8
:100F0000084610BD53E8000F00EA01028A4203D0F0
:100F1000BFF32F8F002005E020EA010243E8002400
:100F200004B1EFE710BD0000B0B5104A0023443211
:100F300015462C683CB12569A94209D3491B04F127
:100F40000C052346F5E70024C0E90234016106E000
:100F5000C0E902340161A0602569691A2161002B92
:100F600018BF03F10C021060B0BD00BF0C000020E0
:100F7000FEE7000010B5074C00F00F03044AB0F183
:100F8000FF3F2344C8BF83180801187010BD00BF7D
:100F900000E400E014ED00E00B480C4A002100F0F2
:100FA0005DFE0B49086008B9FFF71AFA00F06EF809
:100FB000084D094E441C204600F04CF82878316852
:100FC000013408443060F6E7DD0F0008B025000862
:100FD000B80800200000002010960020044C206873
:100FE00080F0800020604FF4FA7000F017F8F6E708
:100FF00014180240FFF700FBFFF70AFFFFF718FE87
:1010000000F056F80348044A002100F027FE00F0E3
:101010006BF8FEE7990F00088C25000810B5044610
:10102000FFF7DFF9EFF3058028B9EFF3108010B96F
:10103000EFF3118030B16FF00500FFF7D4F96FF0D6
:10104000050010BD2046DFF808C000DF10BD00BF5E
:10105000A11C000810B50446FFF7C7F9EFF305809F
:1010600028B9EFF3108010B9EFF3118030B16FF0B1
:101070000500FFF7B8F96FF0050010BD2046DFF856
:1010800008C000DF10BD00BFC91C0008EFF30580D9
:1010900028B9EFF3108010B9EFF3118008B100F018
:1010A00031BEDFF808C000DF704700BF051D000833
:1010B00080B500F0E9F8FFF79DF9EFF3058028B956
:1010C000EFF3108010B9EFF3118030B16FF005002D
:1010D000FFF78EF96FF0050080BDDFF808C000DF74
:1010E00080BD00BF191D000880B5FFF785F9EFF33B
:1010F000058028B9EFF3108010B9EFF3118030B1FB
:101100006FF00500FFF774F96FF0050080BDDFF8A0
:1011100008C000DF80BD00BF711E0008F8B51F4683
:1011200016460C460546FFF772F9EFF3058028B91D
:10113000EFF3108010B9EFF3118068B3E5B1DFB9B8
:10114000D4B12878FA2817D12846FFF7CCFDE0B1B2
:101150006A6A074600F10C012046FFF7EAF80EB173
:10116000F87830703846FD6000F08EFA2846214647
:10117000FFF758F9002406E028466FF003016FF0EE
:101180000304FFF743F92046F8BD28462146FFF740
:1011900045F96FF00204F6E72846DFF80CC0214657
:1011A00032463B4600DFF8BD151F000870B51446F7
:1011B0000D460646FFF730F9EFF3058028B9EFF347
:1011C000108010B9EFF3118038B100206FF00501E5
:1011D0000024FFF71BF9204670BD3046DFF80CC035
:1011E0002946224600DF0446F5E700BF2520000817
:1011F000F8B51F4616460C460546FFF710F9EFF303
:10120000058028B9EFF3108010B9EFF3118078B39F
:10121000F5B1EFB9E4B12878FA2819D105F10C003D
:1012200000F0B7F8E8B16A6A07460C302146FFF7CC
:1012300080F8F920C7E90145FE700026387038466D
:10124000BE7000F021FA28462146FFF7E3F806E0D9
:1012500028466FF003016FF00306FFF7D7F830461A
:10126000F8BD28462146FFF7D8F86FF00206F6E7EA
:101270002846DFF80CC0214632463B4600DFF8BD69
:1012800065210008FEE7FEE77047F8B5A8B1A1B1F7
:10129000042A12D2034601F10F0453F8085F24F028
:1012A000070C2E46EF1A5D6825F003043C1B6445CD
:1012B00006D235683346002DF3D1002400231EE00A
:1012C000D0E900460719664457F8044C4660B4421A
:1012D00003D2A7F1080466605D6855B11C6825F06B
:1012E0000305EC501D444CEA02041D602B466C6063
:1012F00002E04CEA02045C6003F108042346FFF7B5
:101300007DF82046F8BDB0B560B159B100F10804D0
:10131000A1F108020023944207D0254624682B46F9
:10132000002CF8D10024002210E051F8045C44683D
:1013300025F00305A4EB0504446013B112681A609C
:1013400002E0002241F8042C01240122FFF75AF8A0
:101350002046B0BD10B508B1420705D000240022D8
:10136000FFF751F8204610BD1829F7D311F00702F6
:10137000F4D10A181024A2F108038360002342F874
:10138000083C82685460C0E9001401240122C36053
:10139000E6E7B0B5002817D000F1140151E8004F7E
:1013A00014B9BFF32F8F04E0226841E8002303B192
:1013B000F4E73CB1011D51E8002F531C41E8003512
:1013C00005B1F8E7214602E0002400200021FFF7E4
:1013D00016F82046B0BDB0B500281FD0C2688A42BA
:1013E0001CD802698A4219D900F1140213680B60F3
:1013F000BFF35F8F52E8003F0C689C42F6D142E891
:10140000001505B1F2E7021D52E8003F5C1E42E8FC
:10141000004505B1F8E70024002203E06FF0030463
:101420006FF00302FEF7ECFF2046B0BD70B50E462C
:1014300001460020E9B1E6B11446D2B11D46C3B160
:1014400004FB065200202B46C1E90060C1E90245B9
:101450000846C1E9042531462246FEF7D2FF701E38
:1014600020B12919013829600D46F9E700202860CC
:10147000012070BD2DE9F04104468078D0B3E568C5
:1014800021462846FFF77BFC002005F10C0621468B
:1014900020703046FFF79FFFA86848B33046FFF73B
:1014A00078FF28B30446284600F054FA00210022B1
:1014B00006464FF0000800F021FB304600F0B0FA7D
:1014C00087686A6A064604F10C003946FEF731FF68
:1014D000F920214684F802802070F068E0702846E8
:1014E000FFF721FC28463946BDE8F041FEF793BFDF
:1014F000BDE8F081D4E90115A86858B34078832885
:1015000028D12846FEF787FF284600F023FA00215D
:10151000002206464FF0000800F0F0FA304600F0D6
:101520007FFA86686A6A074604F10C013046FEF7C6
:1015300000FFF86808B1E178017028463146FEF7EF
:1015400071FF84F8008005F10C002146BDE8F041F0
:10155000FFF741BF2846FEF75EFF28462146BDE85B
:10156000F041FFF7E0BB2DE9F041044600274FF0C2
:10157000010814B325466469E8780007F9D52846C0
:1015800000212F76FEF751FFA8680028F1D02846E9
:1015900000F0E0F900210022064600F0AFFAC5E9AC
:1015A0000367F06A686100B105612846012185F88A
:1015B0001880F562FEF738FFDBE7BDE8F081B0B5D3
:1015C000C278920715D5C068C36A90F821209C683C
:1015D0008C4208BF8C682CB194F9204055B2AC42C3
:1015E000C8BFE2B25B69002BF1D190F820109142A4
:1015F00000D1B0BD80F82020BDE8B04000F0D9B9DE
:1016000070B5D34C04F1560504F15A06B4F85400F1
:10161000D5E85F1F11B9BFF32F8F04E04A1EC5E85C
:10162000532F03B1F4E7090429D0D6E85F1F4A1C01
:10163000904200D80022C6E8532F03B1F5E788B2E4
:10164000E16D51F82000D0B10178F1390829DDD8D9
:10165000DFE801F006050905050C0F051200D5E7C6
:10166000216E8847D2E7616E8847CFE7A16E884731
:10167000CCE7E16E8847C9E7216F8847C6E70020BD
:10168000BDE8704000F010B970B50146F14800F1B6
:101690005603B0F85420D3E85F4FA24202D8BFF3FC
:1016A0002F8F04E0651CC3E8565F06B1F3E7A3B2D1
:1016B000934214D200F15803D3E85F4F651CAA424D
:1016C00000D80025C3E8565F06B1F5E7A2B2C36DA6
:1016D00043F82210417A39B10121817270BD022094
:1016E000BDE87040FFF7CEBD02484FF08051016069
:1016F00070BD00BF04ED00E010B5012190F920306D
:101700004170EB491C310A46896841B191F920408A
:101710009C42F8DCC0E9021290600C3104E0002128
:10172000C0E9021202F108010860BDE81040FEF7AE
:1017300087BE00BFB0B54A1C0DD0EF4A00242C3242
:1017400015462B68E3B1DD69A9421BD3491B03F1A0
:1017500010051C46F5E7E849002330310C461A46CF
:10176000236803F11004002BF9D14FF0FF33C3615C
:101770004FF00003C0E904329AB102F1100110E009
:10178000002500E00125002CC0E90434C16118BF28
:1017900004F1100210602DB1DA69511AD96103F118
:1017A00014010860B0BD00BFC2690169531C0AD0B2
:1017B00021B143694B61CB691A44CA6142693AB9A4
:1017C000CD48C162704709B142694A6142691AB1A4
:1017D0000023436111617047F3480163704700BF04
:1017E00070B5F14EF46A1CB1E0690138E06103D0D4
:1017F00070BDE069002852D1607813384FEA30108C
:10180000082836D8DFE800F00535090D131E242A14
:1018100030002046FEF7E6FD2BE02046FEF70DFEE9
:1018200027E0204600F0BFF8FEF7E1FD21E020466A
:1018300000F0B9F821460546FFF7C1FE2846FEF73D
:10184000F2FD16E0204600F0AEF8FEF7EFFD10E0E6
:10185000204600F0A8F8FEF7D7FD0AE0204600F089
:10186000A2F8FEF7D6FD04E0204600F09CF8FEF753
:10187000D8FD94F82200C0064FF0200058BF602029
:10188000A16B41582046FEF7DDFD204600F081F8AF
:10189000204600F0BDF82469002CAAD101E0002008
:1018A0006061F46270BD00BFB0B50546E3484469AD
:1018B000017A65B1022905D194F9200095F920102B
:1018C000814211DC2846BDE8B04000F0A1B80229F1
:1018D00012D1456A85B194F9200095F92010814212
:1018E0000ADD284600F055F82046FFF705FF284698
:1018F000BDE8B04000F0CEB8B0BD00BF10B50446A2
:1019000000202080A07881070DD5C00605D4ED48C1
:10191000216B406FFFF7F7FC05E0F948216BD0F829
:101920008400FFF758FDA078C00708BF10BDF94933
:10193000D1F8880020B12146BDE81040FFF74BBD2B
:10194000D1F880002146BDE81040FFF7DCBC00BFA5
:101950000C0000200146806882688A6002B1D16074
:101960000021C160704710B591F9203002468068AF
:1019700040B190F920409C42F8DAC1E9020291603E
:101980000C3004E00020C1E9020202F1080001600D
:1019900010BDC16831B182688A60826802B1D160CD
:1019A0000021C16070470178F12918BF7047C068F5
:1019B000F9E7B0B50446054625B12878F12802D1EB
:1019C000ED68F9E7B0BD2046FFF7E3FF2846214662
:1019D000BDE8B040FFF7C7BFB0B504464078332834
:1019E00015D194F82320616A2046FFF765FA70B19B
:1019F000054620460022294600F080F894F823107E
:101A0000606A2A462346BDE8B040FEF715BDB0BD6A
:101A1000014601204870BF481C30FFF7A4BF00BF3B
:101A200090F82210C9064FF0200158BF6021806B4A
:101A300008447047B748416939B1086B8A6B8242E4
:101A400004D90068044A904200D170470120FFF792
:101A500019BC00BF0C000020A52E5AE270B5614CE5
:101A60000A480021A26D666E00F02CFCA94DA86208
:101A70004EB1E26D0648002100F024FCA864002865
:101A800018BF012070BD012070BD00BF8712000883
:101A9000AD1B000810B50446F34884610220607055
:101AA000FFF7C8FF2046BDE81040FEF7CABC00BFE4
:101AB0000C000020F8B5EC4F0C4605460020397AA2
:101AC000022917D1796AA9B17E6921463046FEF70D
:101AD000AEFC304621467570FFF72CFE786A8168AF
:101AE000796211B107F11C02CA600021C160FFF7E1
:101AF000D1FF0120F8BD00BF0C00002070B51546D5
:101B00000E460446FEF79EFC94F82200C0064FF0F5
:101B1000200058BF6020A16B46502046FFF744FECE
:101B20002046002DBDE8704008BFFFF771BFFFF7EA
:101B3000BBBE0000B0B5FFF731F9F24DE968286D82
:101B40000131E96000B18047FFF74AFE0020FFF74E
:101B5000ABFE296C59B1AA69A86B90421CBFC5E9BC
:101B60000E21B0BDE96B19B10139E96300D0B0BDF8
:101B7000297A0229FBD16C6A002CF8D090F8200059
:101B800094F820108142F2D12046FFF702FFA86BA3
:101B9000FFF73EFFA86BFEF753FC2046FFF77AFFE6
:101BA000286CC5E90E40B0BD0C00002082B0D748BB
:101BB0000821D0E91820FFF7F9FAD24D0A496C46FE
:101BC000C5E91301214600224FF0FF33FFF7A6FAC3
:101BD00030B9DDE90001FEF736FCDDE90010884789
:101BE000E86CEFE7DC240008ED1B000870B5C54D7C
:101BF0006C6C0CB32069012601382061E4B12069C6
:101C0000D0B9E06808B1A16881606864E86C04F14B
:101C1000180100220023FFF7EBFA18B10320214638
:101C2000FFF730FBE078012811BF6670616920463C
:101C3000FFF77AF96C6CE1E770BD00BF0C00002083
:101C4000FEF7F9FBDFF810C000DF00204FF0FF3196
:101C5000FEF7F0FBFEE700BF5122000870B5144606
:101C60000D460646FEF7EBFBEFF3058028B9EFF3D0
:101C7000108010B9EFF3118038B100206FF005012A
:101C80000024FEF7D7FB204670BD3046DFF80CC0BD
:101C90002946224600DF0446F5E700BFC5220008BA
:101CA00010B568B1044613202146FFF703FF18B1B1
:101CB0002046FEF799FB03E0D9484069FEF792FB06
:101CC000002010BD0C000020B0B5D54DE968441AC5
:101CD000002C08DD13202146FFF7ECFE50B1204612
:101CE000FEF784FB09E06FF003006FF00304FEF7DA
:101CF0007AFB03E06869FEF775FB00242046B0BD5F
:101D00000C00002010B5C64CE068FEF772FBE068DE
:101D100010BD00BF0C0000202DE9F843C04F387AF9
:101D200048B1012800F099804FF0FF304FF0FF34A8
:101D3000FEF75EFB94E007F108009C21FEF712FB22
:101D4000DFF86887B8F81000D8E90B41A7F854000D
:101D5000D8E9020238642046FA65FFF7FBFA08B1B9
:101D6000C7F88040D8E90541DFF80091D8E9075667
:101D70002046C847D7F880100028284618BF2146BB
:101D800079673146C847D7F88010002818BF294620
:101D9000B967D8E909412046C847D7F8801000281C
:101DA00018BF2146D8F83440F9673CB12168D4E91E
:101DB00002232046FFF73AFBC7F88440D8F83840A2
:101DC0003CB12168D4E902232046FFF72FFBC7F876
:101DD0008840D8F83C403CB12168D4E90223204631
:101DE000FFF724FBC7F88C40D8F840403CB121688D
:101DF000D4E902232046FFF719FBC7F89040D8F832
:101E000044403CB12168D4E902232046FFF70EFB91
:101E1000C7F89440D8F848403CB12168D4E902237F
:101E20002046FFF703FBC7F89840D8F84C403CB178
:101E30002168D4E902232046FFF7F8FAC7F89C404E
:101E4000D8F850403CB12168D4E902232046FFF77E
:101E5000EDFAC7F8A04001203872FEF7CCFA002452
:101E60002046BDE8F88300BF0C0000205513000891
:101E7000B0B5F64C207A012823D1FFF7EFFDC8B1A9
:101E80002148FF21214D8175817D026881F0FF018C
:101E9000C2F30222B1FA81F1C1F120018A4228BFC6
:101EA000511CFE2202FA01F1C17468681849FEF75C
:101EB0008FFF70B14FF0FF304FF0FF34FEF798FA0C
:101EC00005E06FF00600FEF793FA4FF0FF3420466E
:101ED000B0BDFEF779FF2061FEF764FF04F11C003E
:101EE000FFF738FDFFF7D6FD2878C0070CBF0320A9
:101EF000022080F3148802202072FEF77EFA00246C
:101F0000E5E700BF0C0000200CED00E0DC24000839
:101F1000B50200082DE9F0410446002853D00D46D3
:101F2000002950D02078FA284DD120461F469046EF
:101F3000FEF7D9FE002850D0064620463146FEF76F
:101F40001EFF626A06F10C012846FEF7F2F9B8F1AD
:101F5000000F1CBFF07888F8000029462046FEF7E5
:101F600061FA04F10C070025314638463570FFF759
:101F700032FAA06870B33846FFF70BFA002548B371
:101F800006462046FFF7E6FC002101220746FFF740
:101F9000B5FD3846FFF744FDD0F80880626A074671
:101FA00006F10C004146FEF7C4F9F9203146B57040
:101FB0003070F868F0702046FEF7B5FE20464146C6
:101FC000FEF729FA06E020466FF003016FF00305E3
:101FD000FEF71CFA2846BDE8F0819FB1204629464D
:101FE0003A46FEF715FA83203946FFF763FD80B1C4
:101FF000B34841692046FFF7B6FCEFF30980C0E91A
:10200000025809E020462946FEF708FA6FF002055B
:10201000E0E72046FEF7FDF96FF00105DAE700BFC3
:102020000C0000202DE9F84F68B10F4659B107F1B7
:102030000F010546B0FA80F021F00306B6FA86F1EA
:1020400008441F2808D8002400206FF00301FEF781
:10205000DDF92046BDE8F88F06FB05F9B2B19468BA
:10206000D2F800A0D2E90480DCB1A1071CD1D1686C
:10207000332919D9B8F1000F43D0484543D318F09C
:10208000030040D134B14FF0000B1BE04FF0000AC9
:102090004FF000088A49D1F8A00050B1FFF779F954
:1020A0000DE0D1680029E5D0002400206FF0080180
:1020B000CDE7D1F8800034210122FFF7E6F804468D
:1020C0004FF0010BB8F1000F2CD15CB3CDF800A09C
:1020D000DFF8D4A349460022DAF87C00FFF7D5F8F0
:1020E000804620B140464946FEF73CF916E0BBF178
:1020F000000F12D0DAF8A00050B12146FFF76BF9BB
:102100000BE00028BED0002400206FF009019EE7FC
:10211000DAF880002146FFF7F6F80024DDF800A089
:102120000BF1020B0020C4B1C4E90970C4E90B0033
:10213000C4E901A0FA2029463246434684F802B099
:10214000207004F10C00FFF771F9D74804490167CA
:1021500061682046FEF759F97BE76FF0040176E7E6
:10216000751400082DE9F041044650B3884641B388
:102170002078FA2825D1A0681F46164658B3407823
:10218000832828D120464146FEF745F92046FFF72F
:10219000E1FB002101220546FFF7B0FC2846FFF7CE
:1021A0003FFC8568626A074641462846FEF7C1F84B
:1021B000F86800B1067020462946FEF733F900267C
:1021C00006E020466FF003016FF00306FEF71EF9EC
:1021D0003046BDE8F08104F10C00FFF7DAF898B161
:1021E000626A05460C304146FEF7A3F8F920EE700E
:1021F0000026294628702046AE70FEF794FD204642
:102200004146FEF708F9E3E79FB1204641463A46CA
:10221000FEF706F993203946FFF74CFC80B1A2483F
:1022200041692046FFF79FFBEFF30980C0E9028672
:1022300009E020464146FEF7F0F86FF00206C7E7D6
:102240002046FEF7EEF86FF00106C1E70C00002013
:1022500070B5954D287A022824D1686A10B36C694C
:10226000E06AFFF780F9A06930B100210022FFF792
:1022700045FCA069FEF7E2F8EFF30980A063686A05
:102280008168696211B105F11C02CA600026C6604E
:10229000FFF700FCE0786E61C00704D12046FFF72D
:1022A0002DFB08E070BD0420E6606070686BA060E4
:1022B00000B1C4606C632046BDE87040FEF7B9B859
:1022C0000C0000202DE9FE4FF8B106460AB302F1DA
:1022D000100A9468D2E900939AE8A0045CB3A007BE
:1022E0002CD1D068432829D925B1002F5CD015F016
:1022F000070059D1BAF1000F4AD0AAF101003828DD
:1023000048D300206FF00B011BE000206FF00301A9
:1023100017E04FF0010B4FF0180A002300250027AB
:102320004FF00009019160490293D1F8880070B123
:10233000FFF72FF811E0D0680028D5D000206FF00B
:1023400008010024FEF776F82046BDE8FE8FD1F89C
:10235000800044210122FEF798FF04464FF0010857
:10236000002D48D1002C46D0BBF1000F0DD04E49B6
:102370004E4AD1F88400576DD0B1FFF70AF8002813
:10238000054618BF08F1100818E04748406F10E0F4
:102390004FF0180AF7B1482F06D317F0070003D102
:1023A0004FF0000B019118E000206FF00A01C8E720
:1023B000486F39460022FEF768FF0546CDB95FEA4F
:1023C000C87015D03849D1F8880060B12146FFF7B0
:1023D00002F80DE001914FF0010B002CA3D0029305
:1023E0004FF00008BCE7D1F880002146FEF78BFFD4
:1023F000002448F00208002C45D002981821C4F8A7
:10240000049084F80280E07040F2F110208004F122
:102410000800FDF7A7FFE9190020FD2284F821A09C
:1024200084F820A04039C4F82300C4F82700C4F879
:102430002B0084F82F0084F82220C4E90C57C4E94B
:102440000E161B4929601949097849071FD4A16B49
:1024500000220D2A03D041F822000132F9E7154A83
:102460004FF08070C1E90D26C8634A4601980862A2
:102470000D4811490166E16B2046FDF7D9FF204662
:10248000FFF712FA60E700206FF004015AE76FF0DF
:1024900010012A1D4FF0CC3301EB97010029D6D053
:1024A00008C20139FAE700BF0C000020DC24000854
:1024B000A52E5AE2411C0008D919000802E008C8FC
:1024C000121F08C1002AFAD170477047002001E0AE
:1024D00001C1121F002AFBD1704700000300000059
:1024E000E803000005000000C010002010000000FC
:1024F00000000000000000000000000000000000DC
:10250000000000000000000000110020008000001A
:1025100000000000000000000000000000000000BB
:1025200000000000000000000000000000000000AB
:10253000000C0000D825000814260008FC2500081F
:1025400004000000849100200C9200200000000094
:10255000000000000000000000000000000000007B
:10256000000000000000000000000000000000006B
:1025700000000000009100203491002000000000C5
:102580000000000001020304060708090000000023
:10259000000000000000000000000000B800002063
:1025A00000080000280000000000000000000000FB
:1025B00038260008000000000000000000000000B5
:1025C000C0080020000100000F0000000000000013
:1025D00000000000000000000000000000000000FB
:1025E00084910020440000001092002000020000AE
:1025F00001000000000000000000000000000000DA
:102600000000000000910020340000003491002000
:10261000500000000000000000000000C8910020F1
:102620004400000010940020000200002800000078
:1026300000000000000000006F735274784C656465
:1026400054687265616400005254582056352E3526
:102650002E3200007826000800000020B0000000A4
:10266000BC24000828270008B0000020689900005A
:10267000CC24000800000000010000001000000051
:102680000024F40048260008D2B3FB02000000003A
:10269000000000000000000000000000000000003A
:1026A000000000000000000000000000000000002A
:1026B000000000000000000000000000000000001A
:1026C000000000000000000000000000000000000A
:1026D00000000000000000000000000000000000FA
:1026E00000000000000000000000000000000000EA
:1026F00000000000000000000000000000000000DA
:1027000000000000000000000000000000000000C9
:1027100000000000000000000000000000000000B9
:082720000000000000000000B1
:04000005080001AD41
:00000001FF
